:100000000C9472000C9486000C9486000C9486006C
:100010000C9486000C9486000C9486000C94860048
:100020000C9486000C9486000C9486000C94860038
:100030000C9486000C9486000C9486000C94860028
:100040000C9486000C9486000C9486000C94860018
:100050000C9486000C9486000C9486000C94860008
:100060000C9486000C9486000C9486000C948600F8
:100070000C9486000C9486000C9486000C948600E8
:100080000C9486000C9486000C9486000C948600D8
:100090000C9486000C9486000C9486000C948600C8
:1000A0000C9486000C9486000C9486000C948600B8
:1000B0000C9486000C9486000C9486000C948600A8
:1000C0000C9486000C9486000C9486000C942701F6
:1000D0000C9486000C9486000C9486000C94860088
:1000E0000C94860011241FBECFEFD1E2DEBFCDBF3E
:1000F00000E00CBF22E0A0E0B2E001C01D92A13000
:10010000B207E1F70E94A2010C94A9010C9400002F
:10011000CF93DF93CDB7DEB787E290E027E230E000
:10012000F90120812860FC01208388E290E028E228
:1001300030E0F9012081277FFC012083DF91CF91FE
:100140000895CF93DF93CDB7DEB781E290E021E24F
:1001500030E0F90120812F60FC01208382E290E0F1
:1001600022E230E0F9012081207FFC0120838AE037
:1001700091E02AE031E0F90120812861FC0120832F
:100180008BE091E02BE031E0F90120812861FC0156
:100190002083DF91CF910895CF93DF93CDB7DEB762
:1001A0000E94A1000E948800DF91CF910895CF9313
:1001B000DF931F92CDB7DEB7198286E290E0FC0193
:1001C0008081898389818860898388E290E02981A0
:1001D000FC0120830F90DF91CF910895CF93DF939F
:1001E0001F92CDB7DEB7198286E290E0FC018081D4
:1001F00089838981877F898388E290E02981FC0156
:1002000020830F90DF91CF910895CF93DF93CDB7E7
:10021000DEB781ED90E0FC01108280ED90E0FC0102
:10022000108282ED90E026E0FC01208384ED90E0D6
:100230002FE5FC01208385ED90E0FC01108281ED2B
:1002400090E028E9FC012083DF91CF9108951F926F
:100250000F9200905F000F92112400905B000F92AC
:100260002F933F934F935F936F937F938F939F93BE
:10027000AF93BF93EF93FF93CF93DF93CDB7DEB7E9
:1002800086ED90E0FC018081809300028091000265
:10029000883329F482E290E026E0FC0120838091FB
:1002A0000002823329F482E290E029E0FC012083FD
:1002B00080910002843329F482E290E025E0FC0181
:1002C000208380910002863329F482E290E02AE0C4
:1002D000FC01208380910002853321F482E290E0CA
:1002E000FC01108280910002873311F40E94D70034
:1002F00080910002893311F40E94EE00DF91CF91CA
:10030000FF91EF91BF91AF919F918F917F916F91ED
:100310005F914F913F912F910F9000925B000F9052
:1003200000925F000F901F901895CF93DF93CDB789
:10033000DEB7F8940E94CC000E9405017894DF910A
:10034000CF910895CF93DF93CDB7DEB70E9495018B
:06035000FFCFF894FFCF7F
:00000001FF
