:100000000C94EE000C940F010C940F010C940F0152
:100010000C940F010C940F010C940F010C940F0120
:100020000C940F010C940F010C940F010C940F0110
:100030000C940F010C940F010C940F010C940F0100
:100040000C940F010C940F010C940F010C940F01F0
:100050000C940F010C940F010C940F010C940F01E0
:100060000C940F010C940F010C940F010C940F01D0
:100070000C940F010C940F010C940F010C940F01C0
:100080000C940F010C940F010C940F010C940F01B0
:100090000C940F010C940F010C940F010C940F01A0
:1000A0000C940F010C940F010C940F010C940F0190
:1000B0000C940F010C940F010C940F010C940F0180
:1000C0000C940F010C940F010C940F010C94D002AE
:1000D0000C940F010C940F010C940F010C940F0160
:1000E0000C940F013703F102FE02010304036A03BB
:1000F0006A036A036A036A036A036A036A036A0398
:100100006A036A0307030A030D03100313036A0358
:100110006A036A036A036A036A036A036A036A0377
:100120006A036A031C031F03220325033E036A03B9
:100130006A036A036A036A036A036A036A036A0357
:100140006A036A0328032B032E0337033E0362036B
:100150006A035C036A035F036A036A036A036A0350
:100160006A036A0347034A034D034D0356035903C9
:100170000C9413030C946A030C944D030C945F03CA
:100180000C942B030C9447030C9404030C940A0363
:100190000C9456030C944A030C9422030C941C03F5
:1001A0000C9428030C941F030C9437030C9407033E
:1001B0000C945C030C942E030C94F1020C940D032C
:1001C0000C9425030C943E030C94FE020C946203E1
:1001D0000C9401030C9459030C94100311241FBEBA
:1001E000CFEFD1E2DEBFCDBF00E00CBF12E0A0E058
:1001F000B2E0EEE8F7E000E00BBF02C007900D921E
:10020000A430B107D9F722E0A4E0B2E001C01D920A
:10021000A331B207E1F70E94A4030C94C5030C9428
:10022000000086E69EE00197F1F7000040984198B3
:1002300080E388B9429A8FEF9FE30197F1F700C0FE
:10024000429886E69EE00197F1F7000040984198B9
:1002500080E388B9429A8FEF9FE30197F1F700C0DE
:10026000429886E69EE00197F1F700004098419899
:1002700080E388B9429A8FEF9FE30197F1F700C0BE
:10028000429886E69EE00197F1F700004098419879
:1002900080E288B9429A8FEF9FE30197F1F700C09F
:1002A0004298089598B19F7098B928B1982F907F7F
:1002B000922B98B940984198429AEFEFFFE331971B
:1002C000F1F700C0429898B19F7098B998B18295A3
:1002D000807F892B88B940984198429A8FEF9FE39D
:1002E0000197F1F700C04298089586E69EE00197D5
:1002F000F1F7000088E20E94520181E00E94520161
:1003000086E00E9452018EE00E94520180E80C9427
:10031000520198B19F7098B928B1982F907F922B75
:1003200098B9409A4198429AEFEFFFE33197F1F77D
:1003300000C042988295807F98B19F7098B998B11B
:10034000892B88B9409A4198429A8FEF9FE3019791
:10035000F1F700C04298089580E80C945201CF93C1
:10036000DF93EC018991882319F00E948901FACF6B
:10037000DF91CF910895982F862F923059F01CF479
:10038000913031F00895933039F0943039F0089578
:10039000815805C0815403C08D5601C08D520C9404
:1003A00052010F931F93CF93DF938A01E9018823B2
:1003B00011F0611103C00E94AC0102C00E94BB0198
:1003C000C530D10579F4C80160E177E20E94AB0342
:1003D000605D7F4F7093050260930402862F0E9438
:1003E000890103C0C430D10559F5C80168EE73E036
:1003F0000E94AB03CB0170930702609306026AE090
:1004000070E00E94AB03C096909312028093110299
:100410000E948901C80164E670E00E94AB03CB0131
:1004200070930702609306026AE070E00E94AB03DB
:10043000C09690930E0280930D020E94890106C01F
:10044000C330D10539F3C230D10551F52AE030E08F
:10045000C801B9010E94AB03CB01709307026093FE
:100460000602B9010E94AB03C09690930B028093E1
:100470000A020E948901C8016AE070E00E94AB0391
:10048000C0969093100280930F020E9489012697D4
:100490005CF085E4DF91CF911F910F910C9489015D
:1004A000C130D105A1F7E7CFDF91CF911F910F9117
:1004B000089587B1876F87B988B1807888B9089522
:1004C0003B9A4398089581B18F6081B982B1807F52
:1004D00082B9EAE0F1E0808188618083EBE0F1E0BD
:1004E0008081886180830895E1E2F1E010828FEFDE
:1004F0008093250191E0909324011092290180932B
:10050000280110922B0180932A0110922D018093D3
:100510002C0189EA809320018BE0808308958093E9
:10052000280160932A01089592B1907F8F70892BE2
:1005300082B9089586E00C94940280E00C949402B1
:1005400084E00E9494021092280188EC80932A0192
:10055000089582E00E94940288EC80932801109212
:100560002A0108950E9463020E9460020C945902BD
:1005700086B1886088B9089586B1877F88B9089563
:10058000E1EDF0E010821092D00086E08093D2007E
:100590008FE58093D4001092D50088E98083089578
:1005A0001F920F920FB60F9211240BB60F922F933A
:1005B0003F934F935F936F937F938F939F93AF93EB
:1005C000BF93EF93FF938091D60080930C0290E04D
:1005D0008634910508F07EC0FC01EE58FF4F0C9464
:1005E000BF0388EC90E090930302809302028FEFA8
:1005F00090E090930102809300026CC086E990E045
:10060000F2CF84E690E0EFCF82E390E0ECCF8FEF83
:1006100090E00BC088EC90E02CC086E990E005C02B
:1006200084E690E002C082E390E09093030280931E
:10063000020288EC90E0DDCF8FEF90E021C088ECE3
:1006400090E01EC086E990E014C084E690E018C0F7
:100650008FEF90E005C088EC90E002C086E990E062
:10066000909303028093020284E690E0C2CF8FEF62
:1006700090E09093030280930202BBCF82E390E06C
:10068000909303028093020286E990E0B2CF8FEF4D
:1006900090E005C088EC90E002C086E990E090937D
:1006A00003028093020282E390E0A3CF0E94A9029A
:1006B0002FC00E94A0022CC00E94B80229C00E9434
:1006C000BC0226C010920302109202021092010294
:1006D000109200020E949A02809100029091020200
:1006E0009093280180932A014091020250910302C5
:1006F00025E030E061E081E00E94D10140910002FC
:100700005091010225E030E061E082E00E94D101D9
:10071000FF91EF91BF91AF919F918F917F916F91D9
:100720005F914F913F912F910F900BBE0F900FBE95
:100730000F901F901895F8940E94B2020E94C00278
:100740000E947402789408950E949B030E941101F4
:100750000E947501FFCFAA1BBB1B51E107C0AA1F56
:10076000BB1FA617B70710F0A61BB70B881F991F52
:100770005A95A9F780959095BC01CD010895EE0F8B
:0E078000FF1F0590F491E02D1994F894FFCF1F
:04078E00FF00FF0069
:00000001FF
