:100000000C9472000C9493000C9493000C94930045
:100010000C9493000C9493000C9493000C94930014
:100020000C9493000C9493000C9493000C94930004
:100030000C9493000C9493000C9493000C949300F4
:100040000C9493000C9493000C9493000C949300E4
:100050000C9493000C9493000C9493000C949300D4
:100060000C9493000C9493000C9493000C949300C4
:100070000C9493000C9493000C9493000C949300B4
:100080000C9493000C9493000C9493000C949300A4
:100090000C9493000C9493000C9493000C94930094
:1000A0000C9493000C9493000C9493000C94930084
:1000B0000C9493000C9493000C9493000C94930074
:1000C0000C9493000C9493000C9493000C944202B3
:1000D0000C9493000C9493000C9493000C94930054
:1000E0000C94930011241FBECFEFD1E2DEBFCDBF31
:1000F00000E00CBF12E0A0E0B2E0ECE3F6E000E0CC
:100100000BBF02C007900D92A430B107D9F722E0CF
:10011000A4E0B2E001C01D92A331B207E1F70E9452
:1001200001030C941C030C94000086E69EE00197EA
:10013000F1F700004098419880E388B9429A8FEF28
:100140009FE30197F1F700C0429886E69EE0019791
:10015000F1F700004098419880E388B9429A8FEF08
:100160009FE30197F1F700C0429886E69EE0019771
:10017000F1F700004098419880E388B9429A8FEFE8
:100180009FE30197F1F700C0429886E69EE0019751
:10019000F1F700004098419880E288B9429A8FEFC9
:1001A0009FE30197F1F700C04298089598B19F70BE
:1001B00098B928B1982F907F922B98B94098419880
:1001C000429AEFEFFFE33197F1F700C0429898B100
:1001D0009F7098B998B18295807F892B88B9409893
:1001E0004198429A8FEF9FE30197F1F700C0429840
:1001F000089586E69EE00197F1F7000088E20E94EC
:10020000D60081E00E94D60086E00E94D6008EE0F3
:100210000E94D60080E80C94D60098B19F7098B9DF
:1002200028B1982F907F922B98B9409A4198429A82
:10023000EFEFFFE33197F1F700C042988295807F9E
:1002400098B19F7098B998B1892B88B9409A419814
:10025000429A8FEF9FE30197F1F700C0429808950B
:1002600080E80C94D600CF93DF93EC01899188232A
:1002700019F00E940D01FACFDF91CF910895982FC8
:10028000862F923059F01CF4913031F0089593305C
:1002900039F0943039F00895815805C0815403C075
:1002A0008D5601C08D520C94D6000F931F93CF939F
:1002B000DF938A01E901882311F0611103C00E94D4
:1002C000300102C00E943F01C530D10579F4C80158
:1002D00060E177E20E940803605D7F4F7093050242
:1002E00060930402862F0E940D0103C0C430D10523
:1002F00059F5C80168EE73E00E940803CB017093C2
:100300000702609306026AE070E00E940803C0964C
:1003100090931202809311020E940D01C80164E6BD
:1003200070E00E940803CB017093070260930602FD
:100330006AE070E00E940803C09690930E028093DA
:100340000D020E940D0106C0C330D10539F3C23041
:10035000D10551F52AE030E0C801B9010E94080337
:10036000CB017093070260930602B9010E94080353
:10037000C09690930B0280930A020E940D01C8015F
:100380006AE070E00E940803C09690931002809388
:100390000F020E940D0126975CF085E4DF91CF915A
:1003A0001F910F910C940D01C130D105A1F7E7CF3A
:1003B000DF91CF911F910F91089587B1876F87B912
:1003C00088B1807888B908953B9A4398089581B19F
:1003D0008F6081B982B1807F82B9EAE0F1E08081EB
:1003E00088618083EBE0F1E08081886180830895FB
:1003F000E1E2F1E010828FEF8093250191E090938C
:100400002401109229018093280110922B018093DE
:100410002A0110922D0180932C0189EA80932001FA
:100420008BE0808308958093280160932A010895CA
:1004300092B1907F8F70892B82B9089586E00C94D9
:10044000180280E00C9418020E94E7010E94E40167
:100450000C94DD0186B1886088B9089586B1877FE4
:1004600088B90895E1EDF0E010821092D00086E0A6
:100470008093D2008FE58093D4001092D50088E954
:10048000808308951F920F920FB60F9211240BB61E
:100490000F922F933F934F935F936F937F938F931D
:1004A0009F93AF93BF93EF93FF938091D600809378
:1004B0000C02813019F482E390E04FC0813119F4CD
:1004C00082E390E053C0823019F484E690E045C0A6
:1004D000823119F484E690E049C0833019F488E74A
:1004E00090E03BC0833119F488E790E03FC084304E
:1004F00019F48CE890E031C0843119F48CE890E074
:1005000035C0853019F480EA90E027C0853119F4B0
:1005100080EA90E02BC0863019F484EB90E01DC097
:10052000863119F484EB90E021C0873019F488EC0F
:1005300090E013C0873119F488EC90E017C0883040
:1005400019F48CED90E009C0883119F48CED90E03D
:100550000DC0893039F48FEF90E0909301028093C1
:10056000000215C0893139F48FEF90E090930302B7
:10057000809302020CC0853351F40E942102109234
:1005800003021092020210920102109200020E94D5
:100590001E028091000290910202909328018093A4
:1005A0002A01409102025091030225E030E061E00F
:1005B00081E00E945501409100025091010225E026
:1005C00030E061E082E00E945501FF91EF91BF9120
:1005D000AF919F918F917F916F915F914F913F91DB
:1005E0002F910F900BBE0F900FBE0F901F9018957C
:1005F000F8940E9424020E9432020E94F80178942A
:1006000008950E94F8020E9495000E94F900FFCF11
:10061000AA1BBB1B51E107C0AA1FBB1FA617B70728
:1006200010F0A61BB70B881F991F5A95A9F7809544
:0C0630009095BC01CD010895F894FFCF17
:04063C00FF00FF00BC
:00000001FF
