:100000000C942F010C9450010C9450010C9450014D
:100010000C9450010C9450010C9450010C9450011C
:100020000C9450010C9450010C9450010C9450010C
:100030000C9450010C9450010C9450010C945001FC
:100040000C9450010C9450010C9450010C945001EC
:100050000C9450010C9450010C9450010C945001DC
:100060000C9450010C949A030C9450010C94500180
:100070000C9450010C9450010C9450010C945001BC
:100080000C9450010C9450010C9450010C945001AC
:100090000C9450010C9450010C9450010C9450019C
:1000A0000C9450010C9450010C9450010C9450018C
:1000B0000C9450010C9450010C9450010C9450017C
:1000C0000C9450010C9450010C9450010C9450016C
:1000D0000C9450010C9450010C9450010C9450015C
:1000E0000C945001C60480048D0490049304F90418
:1000F000F904F904F904F904F904F904F904F90418
:10010000F904F904960499049C049F04A204F904D8
:10011000F904F904F904F904F904F904F904F904F7
:10012000F904F904AB04AE04B104B404CD04F90439
:10013000F904F904F904F904F904F904F904F904D7
:10014000F904F904B704BA04BD04C604CD04F104EB
:10015000F904EB04F904EE04F904F904F904F904D0
:10016000F904F904D604D904DC04DC04E504E80449
:1001700007634236B79BD8A71A39685618AEBAAB90
:10018000558C1D3CB7CC5763BD6DEDFD753EF61724
:100190007231BF000000803F08000000BE92244979
:1001A000123EABAAAA2ABECDCCCC4C3E00000080A9
:1001B000BEABAAAAAA3E00000000BF000000803F1C
:1001C0000000000000084178D3BB4387D1133D19DC
:1001D0000E3CC3BD4282AD2B3E68EC8276BED98F09
:1001E000E1A93E4C80EFFFBE01C4FF7F3F0000004D
:1001F00000000C94BD040C948D040C94B4040C9475
:1002000096040C94AB040C94E5040C94A2040C9496
:10021000CD040C9480040C94F9040C94B7040C9451
:1002200093040C94D9040C94BA040C94EE040C942A
:1002300099040C94DC040C94AE040C94C6040C9445
:10024000E8040C94F1040C949C040C9490040C9419
:100250009F040C94EB040C94B1040C94D604112468
:100260001FBECFEFD1E2DEBFCDBF00E00CBF12E07A
:10027000A0E0B2E0EAEAF1E100E00BBF02C00790C3
:100280000D92A630B107D9F722E0A6E0B2E001C096
:100290001D92A332B207E1F70E945E050C94D308C9
:1002A0000C94000086E69EE00197F1F7000040986C
:1002B000419880E388B9429A8FEF9FE30197F1F765
:1002C00000C0429886E69EE00197F1F70000409852
:1002D000419880E388B9429A8FEF9FE30197F1F745
:1002E00000C0429886E69EE00197F1F70000409832
:1002F000419880E388B9429A8FEF9FE30197F1F725
:1003000000C0429886E69EE00197F1F70000409811
:10031000419880E288B9429A8FEF9FE30197F1F705
:1003200000C04298089598B19F7098B928B1982F4D
:10033000907F922B98B940984198429AEFEFFFE353
:100340003197F1F700C0429898B19F7098B998B171
:100350008295807F892B88B940984198429A8FEF87
:100360009FE30197F1F700C04298089586E69EE06A
:100370000197F1F7000088E20E94930181E00E945A
:10038000930186E00E9493018EE00E94930180E831
:100390000C94930198B19F7098B928B1982F907FD1
:1003A000922B98B9409A4198429AEFEFFFE3319728
:1003B000F1F700C042988295807F98B19F7098B9FC
:1003C00098B1892B88B9409A4198429A8FEF9FE360
:1003D0000197F1F700C04298089580E80C949301CA
:1003E000CF93DF93EC018991882319F00E94CA0111
:1003F000FACFDF91CF910895982F862F923059F040
:100400001CF4913031F00895933039F0943039F084
:100410000895815805C0815403C08D5601C08D5286
:100420000C9493010F931F93CF93DF938A01E901FB
:10043000882311F0611103C00E94ED0102C00E94E7
:10044000FC01C530D10579F4C80160E177E20E9472
:100450006505605D7F4F70930B0260930A02862FE3
:100460000E94CA0103C0C430D10559F5C80168EE25
:1004700073E00E946505CB0170930E0260930D023C
:100480006AE070E00E946505C09690932202809316
:1004900021020E94CA01C80164E670E00E9465055D
:1004A000CB0170930E0260930D026AE070E00E942F
:1004B0006505C09690931D0280931C020E94CA019C
:1004C00006C0C330D10539F3C230D10551F52AE059
:1004D00030E0C801B9010E946505CB0170930E029E
:1004E00060930D02B9010E946505C09690931602B3
:1004F000809315020E94CA01C8016AE070E00E9460
:100500006505C0969093200280931F020E94CA0145
:1005100026975CF085E4DF91CF911F910F910C94A9
:10052000CA01C130D105A1F7E7CFDF91CF911F916B
:100530000F91089587B1876F87B988B1807888B99E
:10054000089510BA11BA1092070110920801089587
:100550003B9A4398089581B18F6081B982B1807FC1
:1005600082B9EAE0F1E0808188618083EBE0F1E02C
:100570008081886180830895E1E2F1E010828FEF4D
:100580008093250191E0909324011092290180939A
:10059000280110922B0180932A0110922D01809343
:1005A0002C0189EA809320018BE080830895809359
:1005B000280160932A01089592B1907F8F70892B52
:1005C00082B9089585E00E94DC028FEF80932801B4
:1005D00080932A0108958AE00E94DC028FEF8093C5
:1005E000280180932A01089586E00C94DC0280E0C3
:1005F0000C94DC0284E00E94DC021092280188EC5A
:1006000080932A01089581E00E94DC0288EC8093A7
:10061000280110922A01089582E00E94DC0288ECF1
:100620008093280110922A01089588E00E94DC023C
:100630001092280188EC80932A01089589E00E9495
:10064000DC028FEF8093280180932A0108950E9495
:10065000AB020E94A8020E949A020C94A102EAE74F
:10066000F0E0108210927B0080E280937C0080E8B2
:1006700080BF86E880830895883018F098E09093D2
:100680007B008770806280937C0080917A00806418
:1006900080937A0080917A0084FFFCCF809179006A
:1006A00090917A00906190937A0010927B00089567
:1006B00086B1886088B9089586B1877F88B9089522
:1006C000682F70E080E090E00E9418062FEE39EC71
:1006D00043E95FE30E9409079B01AC0160E070E021
:1006E00080E89FE30E947F052AE939EF4EE255E456
:1006F0000E94A60620E030E040E251E40E94A606F7
:100700000E94E705CB01613223E0720710F080E21E
:1007100093E00895E1ECF0E010821092C00086E0D2
:100720008093C2008FE58093C4001092C50088E9D1
:10073000808308951F920F920FB60F9211240BB66B
:100740000F922F933F934F935F936F937F938F936A
:100750009F93AF93BF93EF93FF938091C6008093D5
:10076000170285E00E943C0390E090931002809372
:100770000F0287E00E943C0390E09093090280936F
:1007800008028BE00E943C0380931E020E946003DB
:1007900090930702809306028AE00E943C038093B4
:1007A0001E020E94600390931B0280931A028CE049
:1007B0000E943C0380931E020E94600390931902E2
:1007C0008093180240910F025091100223E030E014
:1007D00061E081E00E9412024091080250910902FA
:1007E00023E030E068E081E00E94120240911A02AA
:1007F00050911B0223E030E061E082E00E9412028F
:10080000409106025091070223E030E065E082E06B
:100810000E941202409118025091190223E030E028
:1008200069E082E00E941202809106029091070224
:10083000815591098737910508F180910F029091B8
:1008400010028C389105E4F0809108029091090221
:100850008C389105ACF080911A0290911B02815561
:1008600091098737910560F08091180290911902E3
:10087000815591098737910518F036C00E941E03F3
:1008800080910F02909110028C38910544F40E94DF
:100890001E0386E9809328018FEF80932A018091BF
:1008A0000802909109028C38910544F40E941E03BD
:1008B0008FEF8093280186E980932A0180911A02A4
:1008C00090911B02815591098737910510F40E9480
:1008D000150380911802909119028155910987376B
:1008E000910510F40E9403038091170290E0863472
:1008F000910508F07EC0FC01EE58FF4F0C9479057D
:1009000088EC90E090930502809304028FEF90E0D2
:1009100090930302809302026CC086E990E0F2CFCC
:1009200084E690E0EFCF82E390E0ECCF8FEF90E0B1
:100930000BC088EC90E02CC086E990E005C084E60E
:1009400090E002C082E390E090930502809304025D
:1009500088EC90E0DDCF8FEF90E021C088EC90E054
:100960001EC086E990E014C084E690E018C08FEFC6
:1009700090E005C088EC90E002C086E990E090939A
:1009800005028093040284E690E0C2CF8FEF90E0EE
:100990009093050280930402BBCF82E390E0909392
:1009A00005028093040286E990E0B2CF8FEF90E0D9
:1009B00005C088EC90E002C086E990E090930502C3
:1009C0008093040282E390E0A3CF0E940C0358C0FE
:1009D0000E94FA0255C00E94580352C00E945C0354
:1009E0004FC010920502109204021092030210925E
:1009F0000202809106029091070281559109873782
:100A00009105F0F180910F029091100286399105C5
:100A1000BCF180910802909109028C38910584F113
:100A200080911A0290911B02815591098737910597
:100A300038F18091180290911902815591098737F8
:100A40009105F0F00E94F40280910202909104025C
:100A50009093280180932A0140910402509105024D
:100A600023E030E061E081E00E9412024091020246
:100A70005091030223E030E061E082E00E94120224
:100A8000FF91EF91BF91AF919F918F917F916F9166
:100A90005F914F913F912F910F900BBE0F900FBE22
:100AA0000F901F901895F8940E9427030E948A03C4
:100AB0000E94BC020E942F03789408950E9453055F
:100AC0000E9452010E94B601FFCFAA1BBB1B51E13D
:100AD00007C0AA1FBB1FA617B70710F0A61BB70BAE
:100AE000881F991F5A95A9F780959095BC01CD0153
:100AF0000895EE0FFF1F0590F491E02D19940CD08E
:100B0000EBC0E3D040F0DAD030F021F45F3F19F0D1
:100B1000CCC0511115C1CFC0F0D098F39923C9F3BF
:100B20005523B1F3951B550BBB27AA2762177307F3
:100B3000840738F09F5F5F4F220F331F441FAA1FA7
:100B4000A9F333D00E2E3AF0E0E830D09150504067
:100B5000E695001CCAF729D0FE2F27D0660F771F15
:100B6000881FBB1F261737074807AB07B0E809F0F7
:100B7000BB0B802DBF01FF2793585F4F2AF09E3F8C
:100B8000510568F092C0DCC05F3FECF3983EDCF3A7
:100B9000869577956795B795F7959F5FC9F7880F05
:100BA000911D9695879597F90895E1E0660F771F57
:100BB000881FBB1F621773078407BA0720F0621BE8
:100BC000730B840BBA0BEE1F88F7E095089504D0E1
:100BD0006894B111B5C0089598D088F09F5790F0EF
:100BE000B92F9927B751A0F0D1F0660F771F881F52
:100BF000991F1AF0BA95C9F712C0B13081F09FD091
:100C0000B1E008959CC0672F782F8827B85F39F02E
:100C1000B93FCCF3869577956795B395D9F73EF4B0
:100C200090958095709561957F4F8F4F9F4F089558
:100C3000E89409C097FB3EF4909580957095619576
:100C40007F4F8F4F9F4F9923A9F0F92F96E9BB272C
:100C50009395F695879577956795B795F111F8CFA8
:100C6000FAF4BB0F11F460FF1BC06F5F7F4F8F4F13
:100C70009F4F16C0882311F096E911C0772321F009
:100C80009EE8872F762F05C0662371F096E8862FA1
:100C900070E060E02AF09A95660F771F881FDAF7F8
:100CA000880F9695879597F9089597F99F6780E83B
:100CB00070E060E008959FEF80EC089500240A94AE
:100CC0001616170618060906089500240A94121627
:100CD0001306140605060895092E0394000C11F45A
:100CE000882352F0BB0F40F4BF2B11F460FF04C007
:100CF0006F5F7F4F8F4F9F4F089557FD9058440F60
:100D0000551F59F05F3F71F04795880F97FB991F6A
:100D100061F09F3F79F08795089512161306140627
:100D2000551FF2CF4695F1DF08C0161617061806B4
:100D3000991FF1CF86957105610508940895E8948F
:100D4000BB2766277727CB0197F908950BD0C4CF2F
:100D5000B5DF28F0BADF18F0952309F0A6CFABCFA6
:100D60001124EECFCADFA0F3959FD1F3950F50E089
:100D7000551F629FF001729FBB27F00DB11D639F4D
:100D8000AA27F00DB11DAA1F649F6627B00DA11DF3
:100D9000661F829F2227B00DA11D621F739FB00D99
:100DA000A11D621F839FA00D611D221F749F332709
:100DB000A00D611D231F849F600D211D822F762FA2
:100DC0006A2F11249F5750408AF0E1F088234AF09F
:100DD000EE0FFF1FBB1F661F771F881F91505040EB
:100DE000A9F79E3F510570F060CFAACF5F3FECF3AB
:100DF000983EDCF3869577956795B795F795E795D7
:100E00009F5FC1F7FE2B880F911D9695879597F9E7
:100E10000895FA01EE0FFF1F30962105310599F173
:100E20006115710561F48038BFE39B0749F168944F
:100E30009038810561F08038BFEF9B0741F099231E
:100E400042F5FF3FE1053105210511F1E8940894D1
:100E5000E795D901AA2329F4AB2FBE2FF85FD0F371
:100E600010C0FF5F70F4A695E0F7F73950F019F065
:100E7000FF3A38F49F779F930CD00F9007FC90585F
:100E800008953EF018CF60E070E080E89FE3089599
:100E90004FE79F775F934F933F932F939ED02F9170
:100EA0003F914F915F9152DF05C019F40EF0FDCED6
:100EB00046CF01CF2ADFC8F39638C0F707F80F9264
:100EC000E8942BE33AEA48EB5FE74EDF0F920F928C
:100ED0000F924DB75EB70F92C0D0E0E7F1E016D0A9
:100EE0004F915F91EF91FF91E595EE1FFF1F49F044
:100EF000FE57E0684427EE0F441FFA95E1F741954D
:100F0000550B32D00F9007FE26C00895DF93CF9384
:100F10001F930F93FF92EF92DF927B018C016894F5
:100F200005C0DA2EEF011EDFFE01E894A5912591A0
:100F3000359145915591AEF3EF01D4D0FE01970163
:100F4000A801DA9479F7DF90EF90FF900F911F914D
:100F5000CF91DF9108959B01AC0160E070E080E8E3
:100F60009FE3CDCDA2CE11C1D0DEE8F39923D9F312
:100F7000940F511DBBF39150504094F059F08823C9
:100F800032F0660F771F881F91505040C1F79E3F87
:100F9000510544F7880F911D9695879597F9089507
:100FA0005F3FACF0983E9CF0BB27869577956795A0
:100FB000B79508F4B1609395C1F7BB0F58F711F4DA
:100FC00060FFE8CF6F5F7F4F8F4F9F4FE3CFB8CE6B
:100FD0000EF0DBC070CE689468CE97DEC8F399231C
:100FE000D1F3C6F3DF93CF931F930F93FF92C92FD3
:100FF000DD2788232AF02197660F771F881FDAF7ED
:1010000020E030E040E85FEB9FE3883920F0803E4D
:1010100030F021968F7755D0E8E9F1E003C051D048
:10102000E5ECF1E073DF8B01BE01EC01FB2E6F57A5
:1010300071097595771F880B990BFCDD28E132E764
:1010400041E35FE38FDEAF2D9801AE01FF900F917A
:101050001F91CF91DF9146D03FCEFA01DC01AA0F5C
:10106000BB1F9B01AC01BF5728F42227332744271D
:1010700050781FC0B75188F4AB2F002446953795A0
:101080002795011CA395D2F3002069F0220F331F8E
:10109000441FB395DAF30DD013C061307105A0E899
:1010A0008A07B94630F49B01AC0166277727882769
:1010B0009078309621F020833183428353830895C2
:1010C0005058BB27AA270ED007CEF8DD30F0FDDD43
:1010D00020F031F49F3F11F41EF4EDCD0EF4E095B5
:1010E000E7FBE3CDE92F09DE80F3BA176207730748
:1010F0008407950718F071F49EF521CE0EF4E09563
:101100000B2EBA2FA02D0B01B90190010C01CA01C1
:10111000A0011124FF27591B99F0593F50F4503E6C
:1011200068F11A16F040A22F232F342F4427585F5E
:10113000F3CF469537952795A795F0405395C9F776
:101140007EF41F16BA0B620B730B840BBAF091502E
:10115000A1F0FF0FBB1F661F771F881FC2F70EC0CD
:10116000BA0F621F731F841F48F4879577956795A0
:10117000B795F7959E3F08F0B3CF9395880F08F089
:101180009927EE0F9795879508959F3F31F09150DD
:1011900020F4879577956795B795880F911D96955B
:0A11A000879597F90895F894FFCFA2
:0611AA001500FF00FF002C
:00000001FF
