:100000000C94EA000C940B010C940B010C940B0162
:100010000C940B010C940B010C940B010C940B0130
:100020000C940B010C940B010C940B010C940B0120
:100030000C940B010C940B010C940B010C940B0110
:100040000C940B010C940B010C940B010C940B0100
:100050000C940B010C940B010C940B010C940B01F0
:100060000C940B010C940B010C940B010C940B01E0
:100070000C940B010C940B010C940B010C940B01D0
:100080000C940B010C940B010C940B010C940B01C0
:100090000C940B010C940B010C940B010C940B01B0
:1000A0000C940B010C940B010C940B010C940B01A0
:1000B0000C940B010C940B010C940B010C940B0190
:1000C0000C940B010C940B010C940B010C94CC02BE
:1000D0000C940B010C940B010C940B010C940B0170
:1000E0000C940B013303ED02FA02FD0200036003DE
:1000F00060036003600360036003600360036003E8
:10010000600360030303060309030C030F0360038A
:1001100060036003600360036003600360036003C7
:100120006003600318031B031E0321033A036003EB
:1001300060036003600360036003600360036003A7
:1001400060036003240327032A0333033A0358039D
:100150006003600360036003600360036003600387
:1001600060036003430346034903490352035503F5
:100170000C940F030C9449030C9427030C94430331
:100180000C9400030C9406030C9452030C94460345
:100190000C941E030C9418030C9424030C941B035E
:1001A0000C9460030C9433030C9403030C945803D5
:1001B0000C942A030C94ED020C9409030C94210373
:1001C0000C943A030C94FA020C94FD020C9455031F
:1001D0000C940C0311241FBECFEFD1E2DEBFCDBFC4
:1001E00000E00CBF12E0A0E0B2E0EAE7F7E000E0D8
:1001F0000BBF02C007900D92A430B107D9F722E0DF
:10020000A4E0B2E001C01D92A331B207E1F70E9461
:100210009A030C94BB030C94000086E69EE00197C1
:10022000F1F700004098419880E388B9429A8FEF37
:100230009FE30197F1F700C0429886E69EE00197A0
:10024000F1F700004098419880E388B9429A8FEF17
:100250009FE30197F1F700C0429886E69EE0019780
:10026000F1F700004098419880E388B9429A8FEFF7
:100270009FE30197F1F700C0429886E69EE0019760
:10028000F1F700004098419880E288B9429A8FEFD8
:100290009FE30197F1F700C04298089598B19F70CD
:1002A00098B928B1982F907F922B98B9409841988F
:1002B000429AEFEFFFE33197F1F700C0429898B10F
:1002C0009F7098B998B18295807F892B88B94098A2
:1002D0004198429A8FEF9FE30197F1F700C042984F
:1002E000089586E69EE00197F1F7000088E20E94FB
:1002F0004E0181E00E944E0186E00E944E018EE098
:100300000E944E0180E80C944E0198B19F7098B9FC
:1003100028B1982F907F922B98B9409A4198429A91
:10032000EFEFFFE33197F1F700C042988295807FAD
:1003300098B19F7098B998B1892B88B9409A419823
:10034000429A8FEF9FE30197F1F700C0429808951A
:1003500080E80C944E01CF93DF93EC0189918823C0
:1003600019F00E948501FACFDF91CF910895982F5F
:10037000862F923059F01CF4913031F0089593306B
:1003800039F0943039F00895815805C0815403C084
:100390008D5601C08D520C944E010F931F93CF9335
:1003A000DF938A01E901882311F0611103C00E94E3
:1003B000A80102C00E94B701C530D10579F4C80177
:1003C00060E177E20E94A103605D7F4F70930502B8
:1003D00060930402862F0E94850103C0C430D105BA
:1003E00059F5C80168EE73E00E94A103CB01709338
:1003F0000702609306026AE070E00E94A103C096C3
:1004000090931202809311020E948501C80164E654
:1004100070E00E94A103CB01709307026093060273
:100420006AE070E00E94A103C09690930E02809350
:100430000D020E94850106C0C330D10539F3C230D8
:10044000D10551F52AE030E0C801B9010E94A103AD
:10045000CB017093070260930602B9010E94A103C9
:10046000C09690930B0280930A020E948501C801F6
:100470006AE070E00E94A103C096909310028093FE
:100480000F020E94850126975CF085E4DF91CF91F1
:100490001F910F910C948501C130D105A1F7E7CFD1
:1004A000DF91CF911F910F91089587B1876F87B921
:1004B00088B1807888B908953B9A4398089581B1AE
:1004C0008F6081B982B1807F82B9EAE0F1E08081FA
:1004D00088618083EBE0F1E080818861808308950A
:1004E000E1E2F1E010828FEF8093250191E090939B
:1004F0002401109229018093280110922B018093EE
:100500002A0110922D0180932C0189EA8093200109
:100510008BE0808308958093280160932A010895D9
:1005200092B1907F8F70892B82B9089586E00C94E8
:10053000900280E00C94900281E00E94900288EC8E
:100540008093280110922A01089588E00E94900269
:100550001092280188EC80932A0108950E945F027E
:100560000E945C020C94550286B1886088B9089597
:1005700086B1877F88B90895E1EDF0E0108210928E
:10058000D00086E08093D2008FE58093D400109253
:10059000D50088E9808308951F920F920FB60F92BD
:1005A00011240BB60F922F933F934F935F936F934A
:1005B0007F938F939F93AF93BF93EF93FF9380911C
:1005C000D60080930C0290E08634910508F078C044
:1005D000FC01EE58FF4F0C94B50388EC90E090932B
:1005E0000302809302028FEF90E0909301028093C8
:1005F000000266C086E990E0F2CF84E690E0EFCF9B
:1006000082E390E0ECCF8FEF90E00BC088EC90E0BD
:100610002CC086E990E005C084E690E002C082E349
:1006200090E0909303028093020288EC90E0DDCF8B
:100630008FEF90E021C088EC90E01EC086E990E04A
:1006400014C084E690E018C08FEF90E005C088ECFD
:1006500090E002C086E990E090930302809302024A
:1006600084E690E0C2CF8FEF90E0909303028093F6
:100670000202BBCF82E390E09093030280930202D8
:1006800086E990E0B2CF8FEF90E005C088EC90E073
:1006900002C086E990E0909303028093020282E315
:1006A00090E0A3CF0E94A50229C00E949C0226C010
:1006B00010920302109202021092010210920002A4
:1006C0000E9496028091000290910202909328016C
:1006D00080932A01409102025091030225E030E00C
:1006E00061E081E00E94CD01409100025091010241
:1006F00025E030E061E082E00E94CD01FF91EF91C2
:10070000BF91AF919F918F917F916F915F914F9129
:100710003F912F910F900BBE0F900FBE0F901F9027
:100720001895F8940E94AE020E94BC020E947002CA
:10073000789408950E9491030E940D010E94710116
:10074000FFCFAA1BBB1B51E107C0AA1FBB1FA617E7
:10075000B70710F0A61BB70B881F991F5A95A9F76A
:1007600080959095BC01CD010895EE0FFF1F059077
:0A077000F491E02D1994F894FFCFE6
:04077A00FF00FF007D
:00000001FF
