:100000000C943C010C945D010C945D010C945D0119
:100010000C945D010C945D010C945D010C945D01E8
:100020000C945D010C945D010C945D010C945D01D8
:100030000C945D010C945D010C945D010C945D01C8
:100040000C945D010C945D010C945D010C945D01B8
:100050000C945D010C945D010C945D010C945D01A8
:100060000C945D010C94A7030C945D010C945D014C
:100070000C945D010C945D010C945D010C945D0188
:100080000C945D010C945D010C945D010C945D0178
:100090000C945D010C945D010C945D010C945D0168
:1000A0000C945D010C945D010C945D010C945D0158
:1000B0000C945D010C945D010C945D010C945D0148
:1000C0000C945D010C945D010C945D010C945D0138
:1000D0000C945D010C945D010C945D010C945D0128
:1000E0000C945D010E04C803D503D803DB0345045B
:1000F00045044504450445044504450445044504B8
:1001000045044504DE03E103E403E703EA03450491
:100110004504450445044504450445044504450497
:1001200045044504F303F603F903FC0315044504F1
:100130004504450445044504450445044504450477
:1001400045044504FF03020405040E0415043904A4
:100150004504330445043604450445044504450478
:10016000450445041E042104240424042D04300401
:100170004504450445044504450445044504450437
:1001800045044504420407634236B79BD8A71A3991
:10019000685618AEBAAB558C1D3CB7CC5763BD6DD5
:1001A000EDFD753EF6177231BF000000803F08007C
:1001B0000000BE922449123EABAAAA2ABECDCCCCE6
:1001C0004C3E00000080BEABAAAAAA3E0000000080
:1001D000BF000000803F0000000000084178D3BB52
:1001E0004387D1133D190E3CC3BD4282AD2B3E68FF
:1001F000EC8276BED98FE1A93E4C80EFFFBE01C4F0
:10020000FF7F3F00000000000C9430040C94240495
:100210000C94FC030C942D040C9436040C94DE0313
:100220000C94E1030C94EA030C9402040C941E0455
:100230000C9445040C9442040C94F9030C94DB03D5
:100240000C9433040C9405040C9421040C94D503F1
:100250000C94E4030C940E040C94F3030C94C80364
:100260000C94FF030C94E7030C94F6030C94150410
:100270000C9439040C94D80311241FBECFEFD1E2A3
:10028000DEBFCDBF00E00CBF12E0A0E0B2E0E0EFC7
:10029000FFE000E00BBF02C007900D92A630B1074F
:1002A000D9F712E0A6E0B2E001C01D92A332B10777
:1002B000E1F70E9481040C94F6070C94000086E696
:1002C0009EE00197F1F700004098419880E388B9DB
:1002D000429A8FEF9FE30197F1F700C0429886E6BC
:1002E0009EE00197F1F700004098419880E388B9BB
:1002F000429A8FEF9FE30197F1F700C0429886E69C
:100300009EE00197F1F700004098419880E388B99A
:10031000429A8FEF9FE30197F1F700C0429886E67B
:100320009EE00197F1F700004098419880E288B97B
:10033000429A8FEF9FE30197F1F700C0429808952A
:1003400098B19F7098B928B1982F907F922B98B947
:1003500040984198429AEFEFFFE33197F1F700C0E0
:10036000429898B19F7098B998B18295807F892BF7
:1003700088B940984198429A8FEF9FE30197F1F72F
:1003800000C04298089586E69EE00197F1F70000CC
:1003900088E20E94A00181E00E94A00186E00E9404
:1003A000A0018EE00E94A00180E80C94A00198B109
:1003B0009F7098B928B1982F907F922B98B9409A46
:1003C0004198429AEFEFFFE33197F1F700C042986E
:1003D0008295807F98B19F7098B998B1892B88B920
:1003E000409A4198429A8FEF9FE30197F1F700C03E
:1003F0004298089580E80C94A001CF93DF93EC011C
:100400008991882319F00E94D701FACFDF91CF910B
:100410000895982F862F923059F01CF4913031F0C6
:100420000895933039F0943039F00895815805C01B
:10043000815403C08D5601C08D520C94A0010F93BE
:100440001F93CF93DF938A01E901882311F0611193
:1004500003C00E94FA0102C00E940902C530D10502
:1004600079F4C80160E177E20E948804605D7F4F03
:1004700070930B0260930A02862F0E94D70103C07B
:10048000C430D10559F5C80168EE73E00E948804B4
:10049000CB0170930E0260930D026AE070E00E943F
:1004A0008804C09690932202809321020E94D70173
:1004B000C80164E670E00E948804CB0170930E02CC
:1004C00060930D026AE070E00E948804C0969093E9
:1004D0001D0280931C020E94D70106C0C330D105C3
:1004E00039F3C230D10551F52AE030E0C801B90135
:1004F0000E948804CB0170930E0260930D02B90133
:100500000E948804C09690931602809315020E9460
:10051000D701C8016AE070E00E948804C0969093F9
:10052000200280931F020E94D70126975CF085E489
:10053000DF91CF911F910F910C94D701C130D1055C
:10054000A1F7E7CFDF91CF911F910F91089587B168
:10055000876F87B988B1807888B9089510BA11BAC1
:10056000109207011092080108953B9A439808954C
:1005700081B18F6081B982B1807F82B9EAE0F1E018
:10058000808188618083EBE0F1E0808188618083F5
:100590000895E1E2F1E010828FEF8093250191E070
:1005A00090932401109229018093280110922B012D
:1005B00080932A0110922D0180932C0189EA809367
:1005C00020018BE0808308958093280160932A01A5
:1005D000089592B1907F8F70892B82B9089585E03C
:1005E0000E94E9028FEF8093280180932A010895E9
:1005F0008AE00E94E9028FEF8093280180932A010C
:10060000089586E00C94E90280E00C94E90284E00D
:100610000E94E9021092280188EC80932A01089533
:1006200081E00E94E90288EC8093280110922A015F
:10063000089582E00E94E90288EC809328011092DC
:100640002A01089588E00E94E9021092280188ECAE
:1006500080932A01089589E00E94E9028FEF809338
:10066000280180932A0108950E94B8020E94B502D1
:100670000E94A7020C94AE02EAE7F0E0108210920A
:100680007B0080E280937C0080E880BF86E88083E6
:100690000895883018F098E090937B00877080620E
:1006A00080937C0080917A00806480937A008091AE
:1006B0007A0084FFFCCF8091790090917A0090615C
:1006C00090937A0010927B00089586B1886088B973
:1006D000089586B1877F88B90895682F70E080E01B
:1006E00090E00E943B052FEE39EC43E95FE30E9466
:1006F0002C069B01AC0160E070E080E89FE30E9463
:10070000A2042AE939EF4EE255E40E94C90520E02F
:1007100030E040E251E40E94C9050E940A05CB0185
:10072000613223E0720710F080E293E00895E1EC7B
:10073000F0E010821092C00086E08093C2008FE546
:100740008093C4001092C50088E9808308951F92A9
:100750000F920FB60F9211240BB60F922F933F9367
:100760004F935F936F937F938F939F93AF93BF93B9
:10077000EF93FF938091C6008093170290E081353C
:10078000910508F082C0FC01EE58FF4F0C949C04C8
:1007900088EC90E090930502809304028FEF90E044
:1007A000909303028093020270C086E990E0F2CF3A
:1007B00084E690E0EFCF82E390E0ECCF8FEF90E023
:1007C0000BC088EC90E02CC086E990E005C084E680
:1007D00090E002C082E390E09093050280930402CF
:1007E00088EC90E0DDCF8FEF90E021C088EC90E0C6
:1007F0001EC086E990E014C084E690E018C08FEF38
:1008000090E005C088EC90E002C086E990E090930B
:1008100005028093040284E690E0C2CF8FEF90E05F
:100820009093050280930402BBCF82E390E0909303
:1008300005028093040286E990E0B2CF8FEF90E04A
:1008400005C088EC90E002C086E990E09093050234
:100850008093040282E390E0A3CF0E94190333C087
:100860000E94070330C00E9465032DC00E946903E7
:100870002AC01092050210920402109203021092F4
:10088000020203C00E942B031EC00E94010380913C
:100890000202909104029093280180932A014091D2
:1008A00004025091050223E030E061E081E00E9403
:1008B0001F02409102025091030223E030E061E008
:1008C00082E00E941F02FF91EF91BF91AF919F9133
:1008D0008F917F916F915F914F913F912F910F90E9
:1008E0000BBE0F900FBE0F901F901895F8940E94AA
:1008F00034030E9497030E94C9020E943C0378942B
:1009000008950E9476040E945F010E94C301FFCFF8
:10091000AA1BBB1B51E107C0AA1FBB1FA617B70725
:1009200010F0A61BB70B881F991F5A95A9F7809541
:100930009095BC01CD010895EE0FFF1F0590F49135
:10094000E02D19940CD0EBC0E3D040F0DAD030F0B9
:1009500021F45F3F19F0CCC0511115C1CFC0F0D0C8
:1009600098F39923C9F35523B1F3951B550BBB2776
:10097000AA2762177307840738F09F5F5F4F220F23
:10098000331F441FAA1FA9F333D00E2E3AF0E0E81C
:1009900030D091505040E695001CCAF729D0FE2F68
:1009A00027D0660F771F881FBB1F261737074807FA
:1009B000AB07B0E809F0BB0B802DBF01FF279358B0
:1009C0005F4F2AF09E3F510568F092C0DCC05F3F48
:1009D000ECF3983EDCF3869577956795B795F79598
:1009E0009F5FC9F7880F911D9695879597F9089590
:1009F000E1E0660F771F881FBB1F6217730784072C
:100A0000BA0720F0621B730B840BBA0BEE1F88F73A
:100A1000E095089504D06894B111B5C0089598D0B8
:100A200088F09F5790F0B92F9927B751A0F0D1F0D7
:100A3000660F771F881F991F1AF0BA95C9F712C061
:100A4000B13081F09FD0B1E008959CC0672F782F1E
:100A50008827B85F39F0B93FCCF3869577956795CD
:100A6000B395D9F73EF490958095709561957F4F39
:100A70008F4F9F4F0895E89409C097FB3EF49095DF
:100A80008095709561957F4F8F4F9F4F9923A9F067
:100A9000F92F96E9BB279395F695879577956795F6
:100AA000B795F111F8CFFAF4BB0F11F460FF1BC03A
:100AB0006F5F7F4F8F4F9F4F16C0882311F096E9CD
:100AC00011C0772321F09EE8872F762F05C066237B
:100AD00071F096E8862F70E060E02AF09A95660F34
:100AE000771F881FDAF7880F9695879597F90895ED
:100AF00097F99F6780E870E060E008959FEF80ECD1
:100B0000089500240A941616170618060906089573
:100B100000240A9412161306140605060895092ED9
:100B20000394000C11F4882352F0BB0F40F4BF2B48
:100B300011F460FF04C06F5F7F4F8F4F9F4F089588
:100B400057FD9058440F551F59F05F3F71F047957E
:100B5000880F97FB991F61F09F3F79F08795089563
:100B6000121613061406551FF2CF4695F1DF08C082
:100B7000161617061806991FF1CF8695710561059F
:100B800008940895E894BB2766277727CB0197F947
:100B900008950BD0C4CFB5DF28F0BADF18F0952345
:100BA00009F0A6CFABCF1124EECFCADFA0F3959FFB
:100BB000D1F3950F50E0551F629FF001729FBB2744
:100BC000F00DB11D639FAA27F00DB11DAA1F649FF0
:100BD0006627B00DA11D661F829F2227B00DA11DA3
:100BE000621F739FB00DA11D621F839FA00D611D29
:100BF000221F749F3327A00D611D231F849F600D4A
:100C0000211D822F762F6A2F11249F5750408AF082
:100C1000E1F088234AF0EE0FFF1FBB1F661F771F0E
:100C2000881F91505040A9F79E3F510570F060CF4A
:100C3000AACF5F3FECF3983EDCF3869577956795F6
:100C4000B795F795E7959F5FC1F7FE2B880F911D2C
:100C50009695879597F90895FA01EE0FFF1F309644
:100C60002105310599F16115710561F48038BFE303
:100C70009B0749F168949038810561F08038BFEF97
:100C80009B0741F0992342F5FF3FE105310521051E
:100C900011F1E8940894E795D901AA2329F4AB2F20
:100CA000BE2FF85FD0F310C0FF5F70F4A695E0F799
:100CB000F73950F019F0FF3A38F49F779F930CD032
:100CC0000F9007FC905808953EF018CF60E070E058
:100CD00080E89FE308954FE79F775F934F933F939B
:100CE0002F939ED02F913F914F915F9152DF05C07E
:100CF00019F40EF0FDCE46CF01CF2ADFC8F39638A7
:100D0000C0F707F80F92E8942BE33AEA48EB5FE765
:100D10004EDF0F920F920F924DB75EB70F92C0D079
:100D2000E6E8F1E016D04F915F91EF91FF91E595E4
:100D3000EE1FFF1F49F0FE57E0684427EE0F441FE7
:100D4000FA95E1F74195550B32D00F9007FE26C07A
:100D50000895DF93CF931F930F93FF92EF92DF924B
:100D60007B018C01689405C0DA2EEF011EDFFE01C5
:100D7000E894A5912591359145915591AEF3EF01F8
:100D8000D4D0FE019701A801DA9479F7DF90EF90B3
:100D9000FF900F911F91CF91DF9108959B01AC01BE
:100DA00060E070E080E89FE3CDCDA2CE11C1D0DE3F
:100DB000E8F39923D9F3940F511DBBF391505040A0
:100DC00094F059F0882332F0660F771F881F9150F6
:100DD0005040C1F79E3F510544F7880F911D9695ED
:100DE000879597F908955F3FACF0983E9CF0BB273C
:100DF000869577956795B79508F4B1609395C1F797
:100E0000BB0F58F711F460FFE8CF6F5F7F4F8F4F34
:100E10009F4FE3CFB8CE0EF0DBC070CE689468CEA3
:100E200097DEC8F39923D1F3C6F3DF93CF931F93D3
:100E30000F93FF92C92FDD2788232AF02197660F91
:100E4000771F881FDAF720E030E040E85FEB9FE390
:100E5000883920F0803E30F021968F7755D0EEEA29
:100E6000F1E003C051D0EBEDF1E073DF8B01BE0187
:100E7000EC01FB2E6F5771097595771F880B990B45
:100E8000FCDD28E132E741E35FE38FDEAF2D98011F
:100E9000AE01FF900F911F91CF91DF9146D03FCED1
:100EA000FA01DC01AA0FBB1F9B01AC01BF5728F45C
:100EB00022273327442750781FC0B75188F4AB2F1F
:100EC0000024469537952795011CA395D2F3002061
:100ED00069F0220F331F441FB395DAF30DD013C00E
:100EE00061307105A0E88A07B94630F49B01AC0176
:100EF0006627772788279078309621F020833183E2
:100F00004283538308955058BB27AA270ED007CE9B
:100F1000F8DD30F0FDDD20F031F49F3F11F41EF4D8
:100F2000EDCD0EF4E095E7FBE3CDE92F09DE80F38C
:100F3000BA17620773078407950718F071F49EF5D6
:100F400021CE0EF4E0950B2EBA2FA02D0B01B90186
:100F500090010C01CA01A0011124FF27591B99F02F
:100F6000593F50F4503E68F11A16F040A22F232F3B
:100F7000342F4427585FF3CF469537952795A7958B
:100F8000F0405395C9F77EF41F16BA0B620B730B32
:100F9000840BBAF09150A1F0FF0FBB1F661F771FA3
:100FA000881FC2F70EC0BA0F621F731F841F48F458
:100FB000879577956795B795F7959E3F08F0B3CFDE
:100FC0009395880F08F09927EE0F979587950895C8
:100FD0009F3F31F0915020F4879577956795B795AD
:100FE000880F911D9695879597F90895F894FFCFEE
:060FF0001500FF00FF00E8
:00000001FF
